{
  "contractName": "HackableExchange2After",
  "abi": [
    {
      "inputs": [
        {
          "internalType": "address",
          "name": "",
          "type": "address"
        }
      ],
      "name": "positionMargins",
      "outputs": [
        {
          "internalType": "uint256",
          "name": "",
          "type": "uint256"
        }
      ],
      "stateMutability": "view",
      "type": "function",
      "constant": true
    },
    {
      "inputs": [
        {
          "internalType": "address",
          "name": "",
          "type": "address"
        }
      ],
      "name": "positions",
      "outputs": [
        {
          "internalType": "uint256",
          "name": "",
          "type": "uint256"
        }
      ],
      "stateMutability": "view",
      "type": "function",
      "constant": true
    },
    {
      "inputs": [
        {
          "internalType": "address",
          "name": "",
          "type": "address"
        }
      ],
      "name": "startRate",
      "outputs": [
        {
          "internalType": "uint256",
          "name": "",
          "type": "uint256"
        }
      ],
      "stateMutability": "view",
      "type": "function",
      "constant": true
    },
    {
      "inputs": [
        {
          "internalType": "address",
          "name": "tokenCreatingPosition",
          "type": "address"
        },
        {
          "internalType": "address",
          "name": "tokenPayingWith",
          "type": "address"
        },
        {
          "internalType": "bool",
          "name": "long",
          "type": "bool"
        },
        {
          "internalType": "uint256",
          "name": "marginTimes",
          "type": "uint256"
        },
        {
          "internalType": "uint256",
          "name": "amountFromToken",
          "type": "uint256"
        }
      ],
      "name": "createPosition",
      "outputs": [],
      "stateMutability": "nonpayable",
      "type": "function"
    },
    {
      "inputs": [
        {
          "internalType": "address",
          "name": "newAddress",
          "type": "address"
        }
      ],
      "name": "setOracleAddress",
      "outputs": [
        {
          "internalType": "bool",
          "name": "",
          "type": "bool"
        }
      ],
      "stateMutability": "nonpayable",
      "type": "function"
    },
    {
      "inputs": [],
      "name": "closePosition",
      "outputs": [
        {
          "internalType": "uint256",
          "name": "",
          "type": "uint256"
        }
      ],
      "stateMutability": "nonpayable",
      "type": "function"
    }
  ],
  "bytecode": "0x608060405234801561001057600080fd5b50610794806100206000396000f3fe608060405234801561001057600080fd5b50600436106100625760003560e01c80634c69c00f1461006757806355f57510146100c35780637a3b3c151461011b578063b56cf89714610173578063c393d0e3146101f7578063e897d77c14610215575b600080fd5b6100a96004803603602081101561007d57600080fd5b81019080803573ffffffffffffffffffffffffffffffffffffffff16906020019092919050505061026d565b604051808215151515815260200191505060405180910390f35b610105600480360360208110156100d957600080fd5b81019080803573ffffffffffffffffffffffffffffffffffffffff1690602001909291905050506102b9565b6040518082815260200191505060405180910390f35b61015d6004803603602081101561013157600080fd5b81019080803573ffffffffffffffffffffffffffffffffffffffff1690602001909291905050506102d1565b6040518082815260200191505060405180910390f35b6101f5600480360360a081101561018957600080fd5b81019080803573ffffffffffffffffffffffffffffffffffffffff169060200190929190803573ffffffffffffffffffffffffffffffffffffffff16906020019092919080351515906020019092919080359060200190929190803590602001909291905050506102e9565b005b6101ff61046f565b6040518082815260200191505060405180910390f35b6102576004803603602081101561022b57600080fd5b81019080803573ffffffffffffffffffffffffffffffffffffffff1690602001909291905050506106de565b6040518082815260200191505060405180910390f35b600081600460006101000a81548173ffffffffffffffffffffffffffffffffffffffff021916908373ffffffffffffffffffffffffffffffffffffffff16021790555060019050919050565b60006020528060005260406000206000915090505481565b60036020528060005260406000206000915090505481565b6000600460009054906101000a900473ffffffffffffffffffffffffffffffffffffffff169050816000803373ffffffffffffffffffffffffffffffffffffffff1673ffffffffffffffffffffffffffffffffffffffff1681526020019081526020016000208190555082600160003373ffffffffffffffffffffffffffffffffffffffff1673ffffffffffffffffffffffffffffffffffffffff168152602001908152602001600020819055508073ffffffffffffffffffffffffffffffffffffffff1663c457fb3760016040518263ffffffff1660e01b81526004018082815260200191505060206040518083038186803b1580156103e957600080fd5b505afa1580156103fd573d6000803e3d6000fd5b505050506040513d602081101561041357600080fd5b8101908080519060200190929190505050600360003373ffffffffffffffffffffffffffffffffffffffff1673ffffffffffffffffffffffffffffffffffffffff16815260200190815260200160002081905550505050505050565b600080600460009054906101000a900473ffffffffffffffffffffffffffffffffffffffff16905060008173ffffffffffffffffffffffffffffffffffffffff1663c457fb3760016040518263ffffffff1660e01b81526004018082815260200191505060206040518083038186803b1580156104eb57600080fd5b505afa1580156104ff573d6000803e3d6000fd5b505050506040513d602081101561051557600080fd5b8101908080519060200190929190505050905060008060003373ffffffffffffffffffffffffffffffffffffffff1673ffffffffffffffffffffffffffffffffffffffff1681526020019081526020016000205490506000600360003373ffffffffffffffffffffffffffffffffffffffff1673ffffffffffffffffffffffffffffffffffffffff1681526020019081526020016000205490506000600160003373ffffffffffffffffffffffffffffffffffffffff1673ffffffffffffffffffffffffffffffffffffffff1681526020019081526020016000205490506000848310610669576000610624866106166064876106f690919063ffffffff16565b61072590919063ffffffff16565b9050610661606461065383610645876001018a6106f690919063ffffffff16565b6106f690919063ffffffff16565b61072590919063ffffffff16565b9150506106d2565b6000610691866106836064876106f690919063ffffffff16565b61072590919063ffffffff16565b90506106ce836001016106c060646106b2858a6106f690919063ffffffff16565b61072590919063ffffffff16565b61072590919063ffffffff16565b9150505b80965050505050505090565b60016020528060005260406000206000915090505481565b6000808284029050600084148061071557508284828161071257fe5b04145b61071b57fe5b8091505092915050565b600080821161073057fe5b600082848161073b57fe5b04905082848161074757fe5b0681840201841461075457fe5b809150509291505056fea264697066735822122020e3875f00ff4f852eb2283d250ca9bb12d501cde4e30f865a5e236d70fe43fa64736f6c63430006060033",
  "immutableReferences": {},
  "source": "pragma solidity ^0.6.6;\nimport \"../../../../contracts/interfaces/basic/ERC20.sol\";\nimport \"../../../../contracts/interfaces/basic/safemath.sol\";\nimport \"../../../../contracts/interfaces/examplePlatforms/swapHackablePlatform.sol\";\nimport \"../../../../contracts/interfaces/examplePlatforms/flashLoanProvider.sol\";\n\ncontract HackableExchange2After{\n\n  mapping(address => uint256) public positions;\n  mapping(address => uint256) public positionMargins;\n  mapping(address => address) marginToken;\n  mapping(address => uint256) public startRate;\n  using SafeMath for uint256;\n\n    address oracleAddress;\n\n  function createPosition(address tokenCreatingPosition, address tokenPayingWith, bool long, uint256 marginTimes, uint256 amountFromToken) public{\n    platformToHack exchangeUsingToGetRate = platformToHack(oracleAddress);\n    positions[msg.sender] = amountFromToken;\n    positionMargins[msg.sender] = marginTimes;\n    startRate[msg.sender] = exchangeUsingToGetRate.getTokenPrice(1);\n\n\n\n  }\n\n  function setOracleAddress(address newAddress) public returns(bool){\n    oracleAddress = newAddress;\n    return true;\n  }\n\n\n\n  function closePosition() public returns(uint256){\n\n    platformToHack exchangeUsingToGetRate = platformToHack(oracleAddress);\n    uint256 newRate = exchangeUsingToGetRate.getTokenPrice(1);\n    uint256 positionAmount = positions[msg.sender];\n    uint256 oldRate = startRate[msg.sender];\n    uint256 amountMargin = positionMargins[msg.sender];\n    uint256 amountToReturn;\nif(oldRate>= newRate){\n    uint256 returnWithoutMultiple = (oldRate.mul(100)).div(newRate  );\n    amountToReturn = positionAmount.mul((1+ amountMargin)).mul(returnWithoutMultiple).div(100);\n  }\n  else{\n      uint256 returnWithoutMultiple = (oldRate.mul(100)).div(newRate  );\n      amountToReturn = positionAmount.mul(returnWithoutMultiple).div(100).div(1+amountMargin);\n\n  }\n\n\n  //  ERC20F daiToken = ERC20F(marginToken[msg.sender]);\n  //  daiToken.mintTokensTo(address(this), amountToReturn);\n//  daiToken.transfer(msg.sender, amountToReturn);\n\n\n  return amountToReturn;\n\n\n\n\n  }\n\n}\n",
  "sourcePath": "/home/rhyme/Desktop/apps/bricks/contracts/kits/TrojanCoinAndExchangeManipulation/after/HackableExchange2After.sol",
  "compiler": {
    "name": "solc",
    "version": "0.6.6+commit.6c089d02.Emscripten.clang"
  },
  "schemaVersion": "3.2.0",
  "updatedAt": "2021-06-04T11:12:35.492Z",
  "networkType": "ethereum",
  "devdoc": {
    "methods": {}
  },
  "userdoc": {
    "methods": {}
  }
}