{
  "contractName": "HackableExchange1After",
  "abi": [
    {
      "inputs": [
        {
          "internalType": "address",
          "name": "token",
          "type": "address"
        }
      ],
      "name": "createExchange",
      "outputs": [
        {
          "internalType": "address",
          "name": "exchange",
          "type": "address"
        }
      ],
      "stateMutability": "nonpayable",
      "type": "function"
    },
    {
      "inputs": [
        {
          "internalType": "uint256",
          "name": "min_liquidity",
          "type": "uint256"
        },
        {
          "internalType": "uint256",
          "name": "max_tokens",
          "type": "uint256"
        },
        {
          "internalType": "uint256",
          "name": "deadline",
          "type": "uint256"
        }
      ],
      "name": "addLiquidity",
      "outputs": [
        {
          "internalType": "bool",
          "name": "",
          "type": "bool"
        }
      ],
      "stateMutability": "payable",
      "type": "function",
      "payable": true
    },
    {
      "inputs": [
        {
          "internalType": "uint256",
          "name": "amount",
          "type": "uint256"
        },
        {
          "internalType": "uint256",
          "name": "min_eth",
          "type": "uint256"
        },
        {
          "internalType": "uint256",
          "name": "min_tokens",
          "type": "uint256"
        },
        {
          "internalType": "uint256",
          "name": "deadline",
          "type": "uint256"
        }
      ],
      "name": "removeLiquidity",
      "outputs": [
        {
          "internalType": "bool",
          "name": "",
          "type": "bool"
        }
      ],
      "stateMutability": "nonpayable",
      "type": "function"
    },
    {
      "inputs": [
        {
          "internalType": "uint256",
          "name": "amount1",
          "type": "uint256"
        }
      ],
      "name": "getTokenPrice",
      "outputs": [
        {
          "internalType": "uint256",
          "name": "",
          "type": "uint256"
        }
      ],
      "stateMutability": "view",
      "type": "function",
      "constant": true
    },
    {
      "inputs": [
        {
          "internalType": "address",
          "name": "fromToken",
          "type": "address"
        },
        {
          "internalType": "address",
          "name": "toToken",
          "type": "address"
        },
        {
          "internalType": "uint256",
          "name": "amountFrom",
          "type": "uint256"
        }
      ],
      "name": "tokenToTokenSwap",
      "outputs": [
        {
          "internalType": "uint256",
          "name": "",
          "type": "uint256"
        }
      ],
      "stateMutability": "nonpayable",
      "type": "function"
    }
  ],
  "bytecode": "0x60806040526000805560006001556000600255600580556000600660006101000a81548160ff02191690831515021790555034801561003d57600080fd5b506109e98061004d6000396000f3fe60806040526004361061004a5760003560e01c80631648f38e1461004f578063422f1043146100e0578063c457fb371461013a578063e65b04aa14610189578063f88bf15a14610218575b600080fd5b34801561005b57600080fd5b5061009e6004803603602081101561007257600080fd5b81019080803573ffffffffffffffffffffffffffffffffffffffff169060200190929190505050610289565b604051808273ffffffffffffffffffffffffffffffffffffffff1673ffffffffffffffffffffffffffffffffffffffff16815260200191505060405180910390f35b610120600480360360608110156100f657600080fd5b81019080803590602001909291908035906020019092919080359060200190929190505050610315565b604051808215151515815260200191505060405180910390f35b34801561014657600080fd5b506101736004803603602081101561015d57600080fd5b81019080803590602001909291905050506104a5565b6040518082815260200191505060405180910390f35b34801561019557600080fd5b50610202600480360360608110156101ac57600080fd5b81019080803573ffffffffffffffffffffffffffffffffffffffff169060200190929190803573ffffffffffffffffffffffffffffffffffffffff169060200190929190803590602001909291905050506104c8565b6040518082815260200191505060405180910390f35b34801561022457600080fd5b5061026f6004803603608081101561023b57600080fd5b81019080803590602001909291908035906020019092919080359060200190929190803590602001909291905050506107f5565b604051808215151515815260200191505060405180910390f35b600081600360006101000a81548173ffffffffffffffffffffffffffffffffffffffff021916908373ffffffffffffffffffffffffffffffffffffffff16021790555081600460006101000a81548173ffffffffffffffffffffffffffffffffffffffff021916908373ffffffffffffffffffffffffffffffffffffffff160217905550819050919050565b6000600460009054906101000a900473ffffffffffffffffffffffffffffffffffffffff1673ffffffffffffffffffffffffffffffffffffffff166323b872dd3330866040518463ffffffff1660e01b8152600401808473ffffffffffffffffffffffffffffffffffffffff1673ffffffffffffffffffffffffffffffffffffffff1681526020018373ffffffffffffffffffffffffffffffffffffffff1673ffffffffffffffffffffffffffffffffffffffff1681526020018281526020019350505050602060405180830381600087803b1580156103f457600080fd5b505af1158015610408573d6000803e3d6000fd5b505050506040513d602081101561041e57600080fd5b8101908080519060200190929190505050610484576040517f08c379a000000000000000000000000000000000000000000000000000000000815260040180806020018281038252605781526020018061095d6057913960600191505060405180910390fd5b82600054016000819055503460025401600281905550600190509392505050565b6000806104bd6005548461092d90919063ffffffff16565b905080915050919050565b60006001600660006101000a81548160ff02191690831515021790555069152d02c7e14af68000008211156105005760026005819055505b600061050b836104a5565b9050600084905060008690508173ffffffffffffffffffffffffffffffffffffffff1663a9059cbb33856040518363ffffffff1660e01b8152600401808373ffffffffffffffffffffffffffffffffffffffff1673ffffffffffffffffffffffffffffffffffffffff16815260200182815260200192505050602060405180830381600087803b15801561059e57600080fd5b505af11580156105b2573d6000803e3d6000fd5b505050506040513d60208110156105c857600080fd5b8101908080519060200190929190505050508073ffffffffffffffffffffffffffffffffffffffff166323b872dd3330886040518463ffffffff1660e01b8152600401808473ffffffffffffffffffffffffffffffffffffffff1673ffffffffffffffffffffffffffffffffffffffff1681526020018373ffffffffffffffffffffffffffffffffffffffff1673ffffffffffffffffffffffffffffffffffffffff1681526020018281526020019350505050602060405180830381600087803b15801561069557600080fd5b505af11580156106a9573d6000803e3d6000fd5b505050506040513d60208110156106bf57600080fd5b810190808051906020019092919050505050600083905060001515600660009054906101000a900460ff16151514156107cc578273ffffffffffffffffffffffffffffffffffffffff1663a9059cbb33866040518363ffffffff1660e01b8152600401808373ffffffffffffffffffffffffffffffffffffffff1673ffffffffffffffffffffffffffffffffffffffff16815260200182815260200192505050602060405180830381600087803b15801561077957600080fd5b505af115801561078d573d6000803e3d6000fd5b505050506040513d60208110156107a357600080fd5b8101908080519060200190929190505050506107c960028561092d90919063ffffffff16565b90505b6000600660006101000a81548160ff021916908315150217905550809450505050509392505050565b60008260005403600081905550600460009054906101000a900473ffffffffffffffffffffffffffffffffffffffff1673ffffffffffffffffffffffffffffffffffffffff1663a9059cbb33856040518363ffffffff1660e01b8152600401808373ffffffffffffffffffffffffffffffffffffffff1673ffffffffffffffffffffffffffffffffffffffff16815260200182815260200192505050602060405180830381600087803b1580156108ab57600080fd5b505af11580156108bf573d6000803e3d6000fd5b505050506040513d60208110156108d557600080fd5b8101908080519060200190929190505050503373ffffffffffffffffffffffffffffffffffffffff166108fc60015485029081150290604051600060405180830381858888f193505050505060019050949350505050565b6000808284029050600084148061094c57508284828161094957fe5b04145b61095257fe5b809150509291505056fe506c656173652061646420746f20796f757220746f6b656e2062616c616e6365206f722067697665207468697320636f6e7472616374207065726d697373696f6e20746f2068616e646c6520796f757220746f6b656e73a26469706673582212206b623bc5c66d4f58e293319c6af6a8506af02869d77a1ed8200c6a89433d901364736f6c63430006060033",
  "immutableReferences": {},
  "source": "pragma solidity ^0.6.6;\nimport \"../../../../contracts/interfaces/basic/ERC20.sol\";\nimport \"../../../../contracts/interfaces/basic/safemath.sol\";\n\ncontract HackableExchange1After{\n\n\n      uint256 reserveTokenBalance = 0;\n      uint256 continuousTokenPrice = 0;\n      uint256 ethReserves = 0;\n      address currentTokenContract;\n      ERC20 currentERC20;\n      uint256 rate =5;\n      bool currentlyCalling = false;\n      using SafeMath for uint256;\n\n      //Usually this particular function is in a seperate contract, but for the purposes of this example we have put it here for simplicity reasons\n      function createExchange(address token) external returns (address exchange){\n          currentTokenContract = token;\n          currentERC20 = ERC20(token);\n          return token;\n      }\n\n\n      // Provide Liquidity\n      function addLiquidity(uint256 min_liquidity, uint256 max_tokens, uint256 deadline) external payable returns (bool){\n          //Super simple, insecure function\n          require(currentERC20.transferFrom(msg.sender, address(this), max_tokens), \"Please add to your token balance or give this contract permission to handle your tokens\");\n          reserveTokenBalance = reserveTokenBalance + max_tokens;\n          ethReserves = ethReserves + msg.value;\n          return true;\n\n      }\n\n      function removeLiquidity(uint256 amount, uint256 min_eth, uint256 min_tokens, uint256 deadline) external returns (bool){\n          //Super simple, insecure function\n          reserveTokenBalance = reserveTokenBalance - min_tokens;\n          currentERC20.transfer(msg.sender, min_tokens);\n          msg.sender.send( min_tokens*continuousTokenPrice);\n          return true;\n      }\n/*\n      function getEthToTokenInputPrice(uint256 eth_sold) public view returns (uint256 tokens_bought){\n          //Super simple, insecure function\n          // /Reserve Ratio = Reserve Token Balance / (Continuous Token Supply x Continuous Token Price)\n          // /Continuous Token Price = Reserve Token Balance / (Continuous Token Supply x Reserve Ratio)\n          uint256 tokenSupply = currentERC20.balanceOf(msg.sender);\n          uint256 reserveRatio = reserveTokenBalance / continuousTokenPrice;\n          uint256 continuousTokenPriceNew = reserveTokenBalance / (tokenSupply * reserveRatio);\n          return eth_sold * continuousTokenPriceNew;\n\n      }\n\n      function ethToTokenSwapInput(uint256 min_tokens, uint256 deadline) external payable returns (uint256  tokens_bought){\n          //Super simple, insecure function\n\n          uint256 tokensToSend = getEthToTokenInputPrice(msg.value);\n          require(tokensToSend < min_tokens, \"The amount of min_tokens specified can not be transferred given the amount of eth you provided\");\n          currentERC20.transfer(msg.sender, tokensToSend);\n          reserveTokenBalance = reserveTokenBalance - tokensToSend;\n          ethReserves = ethReserves+ msg.value;\n          return tokensToSend;\n\n\n      }\n\n       function tokenToEthSwapInput(uint256 tokens_sold, uint256 min_eth, uint256 deadline) external returns (uint256  eth_bought){\n          require(currentERC20.transferFrom(msg.sender, address(this), max_tokens), \"Please add to your token balance or give this contract permission to handle your tokens\");\n           uint256 ethToSend = tokens_sold*continuousTokenPrice;\n           msg.sender.send(ethToSend);\n           reserveTokenBalance = reserveTokenBalance+ tokens_sold;\n           ethReserves = ethReserves - ethToSend;\n           return ethToSend;\n\n       }\n\n\n*/\n       function getTokenPrice(uint256 amount1) view public returns(uint256){\n         uint256 amountReturning = amount1.mul(rate);\n         return amountReturning;\n       }\n\n       function tokenToTokenSwap(address fromToken, address toToken, uint256 amountFrom) public returns(uint256){\n         currentlyCalling = true;\n         if(amountFrom > 100000000000000000000000){\n           //the value of toToken has now gone up, so now you can execute your oracle manipulation attack on a margin platform.\n           rate = 2;\n         }\n         uint256 amountToToken = getTokenPrice(amountFrom);\n         ERC20 toERC20 = ERC20(toToken);\n         ERC20 fromERC20 = ERC20(fromToken);\n         toERC20.transfer(msg.sender, amountToToken);\n        fromERC20.transferFrom(msg.sender, address(this) ,amountFrom );\n         uint256 returnAmount = amountToToken;\n         if(currentlyCalling ==false){\n\n           //you activate reentry attack and the exchange is coughing up extra money to you accidentally\n           toERC20.transfer(msg.sender, amountToToken);\n           returnAmount = amountToToken.mul(2);\n         }\n         currentlyCalling=false;\n\n                return returnAmount;\n       }\n\n\n\n\n}\n",
  "sourcePath": "/home/rhyme/Desktop/apps/bricks/contracts/kits/TrojanCoinAndExchangeManipulation/after/HackableExchange1After.sol",
  "compiler": {
    "name": "solc",
    "version": "0.6.6+commit.6c089d02.Emscripten.clang"
  },
  "schemaVersion": "3.2.0",
  "updatedAt": "2021-06-04T11:12:35.485Z",
  "networkType": "ethereum",
  "devdoc": {
    "methods": {}
  },
  "userdoc": {
    "methods": {}
  }
}